:020000040000FA
:040000008B13062830
:040004000034003490
:04000C003620A201F7
:100010000608A0000708A1000830A3002018A20AC3
:10002000A00CA30B0E28A00C0830A3002118A20AD4
:10003000A10CA30B1628A10C031D21280301870086
:100040003528A30CA31703182C28A20B212823085A
:10005000870003018600352823088700A301A30C2D
:10006000A317A20B2F2823088600072810141012AC
:10007000901608000B309200DB3091000C100C1829
:1000800008003F281430A4003A20A40B442808009C
:00000001FF
